:020000020000FC
:0200000021C01D
:02000C00B9C079
:10003800AFC03F065B4F666D7D077F6F0FEF0DBF4B
:1000480008E00EBF00E00093C10000C011240FEFCC
:100058000AB900270BB90EE307B9002708B900E36E
:1000680004B9389A579A0FE005B901E0009368007F
:100078000FE000936B00002700930001009301013B
:10008800009302010093030100930401009305010A
:1000980000930601009307010093080100930901EA
:1000A80000930E0100930F010093100100931101BA
:1000B800002700930A0100930B0100930C010093A1
:1000C8000D0101E000930A0100930C0109E000937F
:1000D800120105E00093130103E00093140102E00C
:1000E8000093150100270093160102E004BD03E008
:1000F80005BD09EF07BD02E000936E00E3D07894D8
:1001080000910F01003059F100FF06C01091110154
:10011800103011F59DD020C001FF02C0A6D01CC030
:1001280002FF0EC010911601113041F42091110107
:10013800203021F41127109316012D9808D20CC0F5
:1001480003FF0AC010911601113021F411271093F2
:1001580016012D9881D200C0002700930F0100914D
:100168000201003069F20027009302011091110189
:10017800103031F612D1C4CF0F930FB70F9303B1DC
:1001880000950F7000930F010F910FBF0F911895F5
:100198000F931F931FB71F9342984398449845980D
:1001A80000910E01003029F0013031F0023039F0B1
:1001B80009C099D0429A08C0A6D0439A05C0B3D0C6
:1001C800449A02C0C0D0459A00910E0103950430AC
:1001D80008F0002700930E01009100010395009399
:1001E800000129F400910101039500930101009198
:1001F8000101003061F400910001013041F4002751
:10020800009300010093010101E0009302010091B5
:10021800030103950093030129F400910401039558
:100228000093040100910401013069F40091030175
:10023800043F49F40027009303010093040108B127
:1002480012E0012708B91F911FBF1F910F91189540
:10025800009110010395033008F000270093100166
:100268000027009311012ED008950091100100304D
:1002780071F00130A9F0023009F023C0009111019A
:100288000395053008F000270093110111C0009173
:1002980011010395053008F000270093110108C0EB
:1002A800009111010395053008F000270093110112
:1002B80013E010930E0111271093030111E010931E
:1002C8000401089540982C985F980091100100301F
:1002D80011F4409A0895013011F42C9A08950230CF
:1002E80009F45F9A089500911001003019F0013067
:1002F80021F006C00091090136C000910B0133C0FE
:100308000091150130C000911001003019F0013042
:1003180021F006C00091080126C000910A0123C0FF
:100328000091140120C000911001003019F0013033
:1003380021F006C00091070116C000910D0113C0FD
:100348000091130110C000911001003019F0013024
:1003580021F006C00091060106C000910C0103C0FF
:100368000091120100C01F932F932091110120309A
:1003780049F010910E011395121721F41091040100
:10038800103021F08AD22F911F91089500271BB1B8
:1003980010781BB92F911F910895009105010395BD
:1003A8000C3308F00027009305010030A1F50091F7
:1003B800060103950A3008F0002700930601003073
:1003C80051F5009107010395063008F000270093C6
:1003D8000701003001F50091080103950A3008F083
:1003E800002700930801003041F4009109010395AA
:1003F800033008F000270093090100910901023039
:1004080051F400910801043031F4002700930901E8
:100418000093080102D076D0089500910A0103954F
:100428000A3048F0002700930A0110910B01139538
:1004380010930B0102C000930A0101D008950091A6
:100448000B0110910A01012B31F401E000930A011C
:10045800002700930B0120910D0130910C01232BF3
:1004680031F431E030930C01332730930D010091C2
:100478000B01202F000F000F000F220F020F109109
:100488000A01010F20910D0130910C01203021F457
:10049800323011F44CE10CC0203049F4343029F0EA
:1004A800363019F0393009F002C04EE101C04FE191
:1004B800041710F009F001D0089501E000930A0133
:1004C800002700930B0100910C0103950A3048F0B6
:1004D800002700930C0110910D01139510930D0145
:1004E80002C000930C0100910D01013051F41091EC
:1004F8000C01133031F401E000930C010027009344
:100508000D01089500910501003001F520911601B3
:100518002130E1F000910901109115010117B1F4A2
:100528000091080110911401011781F4009107014D
:1005380010911301011751F4009106011091120155
:10054800011721F401E0009316012D9A08950091F6
:100558001001003009F407C0013009F446C0023028
:1005680009F405C10895009111010030D9F3013053
:1005780029F0023061F00330D9F023C0109109014D
:100588001395133008F011271093090123C0109117
:100598000801139520910901223021F4143028F024
:1005A800112703C01A3008F0112710930801089585
:1005B800109107011395163008F0112710930701C1
:1005C80008951091060113951A3008F01127109319
:1005D8000601089510910901123021F610910801C1
:1005E800143000F213E0109308010091110100305B
:1005F80009F4B8CF013009F407C0023009F40EC07D
:10060800033009F415C01EC010910B011395143066
:1006180008F0112710930B0112DF089510910A01B9
:1006280013951A3008F0112710930A0108DF08956E
:1006380010910D011395123008F0112710930D0138
:10064800FEDE089510910C0113951A3008F0112759
:1006580010930C01F4DE089500911001003009F4A4
:1006680007C0013009F44CC0023009F4CAC07EC08A
:1006780000911101003009F479C0013009F406C075
:10068800023009F40DC0033029F51AC01091090190
:10069800103011F412E001C01A951093090124C01A
:1006A80010910801103041F420910901223011F411
:1006B80013E003C019E001C01A951093080156C051
:1006C80010910701103011F415E001C01A9510932C
:1006D80007014CC010910601103011F419E001C057
:1006E8001A951093060142C0109109011230F1F5D4
:1006F800109108011430D0F113E01093080136C0AE
:1007080000911101003091F1013029F0023071F0AF
:100718000330B9F021C010910B01103011F413E02F
:1007280001C01A9510930B018ADE20C010910A01AE
:10073800103011F419E001C01A9510930A017FDEF8
:1007480015C010910D01103011F411E001C01A9577
:1007580010930D0174DE0AC010910C01103011F4D1
:1007680019E001C01A9510930C0169DE08950091F3
:100778001101003009F444C0013009F40AC0023004
:1007880009F410C0033009F41EC0043009F424C071
:1007980037C0109115011395133008F011271093E5
:1007A800150123C0109114011395209115012230D1
:1007B80021F4143028F0112703C01A3008F011274B
:1007C800109314011DC0109113011395163008F0F1
:1007D80011271093130114C01091120113951A30A8
:1007E80008F01127109312010BC010911501123057
:1007F80039F410911401143018F013E01093140117
:10080800089500911101003009F446C0013009F43F
:100818000AC0023009F411C0033009F41EC00430C4
:1008280009F425C039C010911501103011F412E0F7
:1008380001C01A951093150124C0109114011030AD
:1008480041F420911501223011F413E003C019E09E
:1008580001C01A95109314011FC010911301103094
:1008680011F415E001C01A951093130115C01091E9
:100878001201103011F419E001C01A9510931201F9
:100888000BC010911501123039F410911401143075
:1008980018F013E0109314010895EF93FF93F0E01C
:1008A800EAE3E00FF11D04911BB11078012B0BB99D
:0608B800FF91EF9108958D
:00000001FF
