:020000020000FC
:100000000FEF0DBF08E00EBF569857983C983D98EB
:100010002498209A219A229A239A529A539A549A6F
:10002000559A389A399A3A9A3B9A259A002705B9EF
:1000300008B90BB95E9A5F9A449A459A2C9A00E8DF
:100040000093610004E00093610044275527662770
:1000500003D010D02DD0FCCF09B1007C003CC1F002
:1000600041D019B1107C101799F416FF45D017FF35
:1000700046D00EC006B10073003389F033D016B1FC
:100080001073101761F414FF45D015FF46D007C058
:1000900025B1207F342F3F70232B25B908952BB134
:1000A000237C352F3F70330F330F232B2BB908954B
:1000B00003B104FD089516D003B104FD0895642F23
:1000C000650F362F307F303011F02D9A01C02D98FA
:1000D00028B1207F362F3F70232B28B91C9BFECFE1
:1000E00001D008957FE08FE09FE09A95F1F78A951F
:1000F000D9F77A95C1F7089543954F7003C04A9593
:100100004F7004C04E9BFECFEDDF08954F9BFECF96
:10011000E9DF089553955F7003C05A955F7004C07E
:10012000349BFECFDFDF0895359BFECFDBDF0895E4
:00000001FF
